{"abi":[{"type":"constructor","inputs":[{"name":"_hasher","type":"address","internalType":"contract IHasher"},{"name":"_token","type":"address","internalType":"address"},{"name":"_levels","type":"uint32","internalType":"uint32"},{"name":"_denominations","type":"uint256[]","internalType":"uint256[]"}],"stateMutability":"nonpayable"},{"type":"function","name":"commitments","inputs":[{"name":"","type":"uint8","internalType":"uint8"},{"name":"","type":"uint256","internalType":"uint256"}],"outputs":[{"name":"","type":"bool","internalType":"bool"}],"stateMutability":"view"},{"type":"function","name":"denominationCount","inputs":[],"outputs":[{"name":"","type":"uint256","internalType":"uint256"}],"stateMutability":"view"},{"type":"function","name":"denominations","inputs":[{"name":"","type":"uint256","internalType":"uint256"}],"outputs":[{"name":"","type":"uint256","internalType":"uint256"}],"stateMutability":"view"},{"type":"function","name":"deposit","inputs":[{"name":"denomIndex","type":"uint8","internalType":"uint8"},{"name":"commitment","type":"uint256","internalType":"uint256"}],"outputs":[{"name":"leafIndex","type":"uint32","internalType":"uint32"}],"stateMutability":"nonpayable"},{"type":"function","name":"getLastRoot","inputs":[{"name":"denomIndex","type":"uint8","internalType":"uint8"}],"outputs":[{"name":"","type":"uint256","internalType":"uint256"}],"stateMutability":"view"},{"type":"function","name":"hasher","inputs":[],"outputs":[{"name":"","type":"address","internalType":"contract IHasher"}],"stateMutability":"view"},{"type":"function","name":"isKnownRoot","inputs":[{"name":"denomIndex","type":"uint8","internalType":"uint8"},{"name":"root","type":"uint256","internalType":"uint256"}],"outputs":[{"name":"","type":"bool","internalType":"bool"}],"stateMutability":"view"},{"type":"function","name":"levels","inputs":[],"outputs":[{"name":"","type":"uint32","internalType":"uint32"}],"stateMutability":"view"},{"type":"function","name":"nextIndex","inputs":[{"name":"denomIndex","type":"uint8","internalType":"uint8"}],"outputs":[{"name":"","type":"uint32","internalType":"uint32"}],"stateMutability":"view"},{"type":"function","name":"token","inputs":[],"outputs":[{"name":"","type":"address","internalType":"contract IERC20"}],"stateMutability":"view"},{"type":"function","name":"trees","inputs":[{"name":"","type":"uint256","internalType":"uint256"}],"outputs":[{"name":"","type":"address","internalType":"contract MerkleTreeWithHistory"}],"stateMutability":"view"},{"type":"event","name":"Deposit","inputs":[{"name":"denomIndex","type":"uint8","indexed":true,"internalType":"uint8"},{"name":"commitment","type":"uint256","indexed":true,"internalType":"uint256"},{"name":"leafIndex","type":"uint32","indexed":false,"internalType":"uint32"}],"anonymous":false},{"type":"event","name":"RootUpdated","inputs":[{"name":"denomIndex","type":"uint8","indexed":true,"internalType":"uint8"},{"name":"root","type":"uint256","indexed":false,"internalType":"uint256"},{"name":"rootIndex","type":"uint32","indexed":false,"internalType":"uint32"}],"anonymous":false},{"type":"error","name":"ReentrancyGuardReentrantCall","inputs":[]},{"type":"error","name":"SafeERC20FailedOperation","inputs":[{"name":"token","type":"address","internalType":"address"}]}],"bytecode":{"object":"0x60e060405234801562000010575f80fd5b50604051620036e9380380620036e98339818101604052810190620000369190620005a1565b6001620000586200004c620002cb60201b60201c565b620002f460201b60201c565b5f01819055505f815111620000a4576040517f08c379a00000000000000000000000000000000000000000000000000000000081526004016200009b906200068d565b60405180910390fd5b61010081511115620000ed576040517f08c379a0000000000000000000000000000000000000000000000000000000008152600401620000e490620006fb565b60405180910390fd5b8373ffffffffffffffffffffffffffffffffffffffff1660a08173ffffffffffffffffffffffffffffffffffffffff16815250508273ffffffffffffffffffffffffffffffffffffffff1660808173ffffffffffffffffffffffffffffffffffffffff16815250508163ffffffff1660c08163ffffffff16815250505f5b8151811015620002c0575f8282815181106200018c576200018b6200071b565b5b602002602001015111620001d7576040517f08c379a0000000000000000000000000000000000000000000000000000000008152600401620001ce9062000796565b60405180910390fd5b5f828281518110620001ee57620001ed6200071b565b5b6020026020010151908060018154018082558091505060019003905f5260205f20015f9091909190915055600183865f6040516200022c90620002fd565b6200023a939291906200083f565b604051809103905ff08015801562000254573d5f803e3d5ffd5b50908060018154018082558091505060019003905f5260205f20015f9091909190916101000a81548173ffffffffffffffffffffffffffffffffffffffff021916908373ffffffffffffffffffffffffffffffffffffffff16021790555080806001019150506200016b565b50505050506200087a565b5f7f9b779b17422d0df92223018b32b4d1fa46e071723d6817e2486d003becc55f005f1b905090565b5f819050919050565b611ce58062001a0483390190565b5f604051905090565b5f80fd5b5f80fd5b5f73ffffffffffffffffffffffffffffffffffffffff82169050919050565b5f62000347826200031c565b9050919050565b5f6200035a826200033b565b9050919050565b6200036c816200034e565b811462000377575f80fd5b50565b5f815190506200038a8162000361565b92915050565b6200039b816200033b565b8114620003a6575f80fd5b50565b5f81519050620003b98162000390565b92915050565b5f63ffffffff82169050919050565b620003d981620003bf565b8114620003e4575f80fd5b50565b5f81519050620003f781620003ce565b92915050565b5f80fd5b5f601f19601f8301169050919050565b7f4e487b71000000000000000000000000000000000000000000000000000000005f52604160045260245ffd5b620004498262000401565b810181811067ffffffffffffffff821117156200046b576200046a62000411565b5b80604052505050565b5f6200047f6200030b565b90506200048d82826200043e565b919050565b5f67ffffffffffffffff821115620004af57620004ae62000411565b5b602082029050602081019050919050565b5f80fd5b5f819050919050565b620004d881620004c4565b8114620004e3575f80fd5b50565b5f81519050620004f681620004cd565b92915050565b5f620005126200050c8462000492565b62000474565b90508083825260208201905060208402830185811115620005385762000537620004c0565b5b835b81811015620005655780620005508882620004e6565b8452602084019350506020810190506200053a565b5050509392505050565b5f82601f830112620005865762000585620003fd565b5b815162000598848260208601620004fc565b91505092915050565b5f805f8060808587031215620005bc57620005bb62000314565b5b5f620005cb878288016200037a565b9450506020620005de87828801620003a9565b9350506040620005f187828801620003e7565b925050606085015167ffffffffffffffff81111562000615576200061462000318565b5b62000623878288016200056f565b91505092959194509250565b5f82825260208201905092915050565b7f6e6f2064656e6f6d696e6174696f6e73000000000000000000000000000000005f82015250565b5f620006756010836200062f565b915062000682826200063f565b602082019050919050565b5f6020820190508181035f830152620006a68162000667565b9050919050565b7f746f6f206d616e792064656e6f6d696e6174696f6e73000000000000000000005f82015250565b5f620006e36016836200062f565b9150620006f082620006ad565b602082019050919050565b5f6020820190508181035f8301526200071481620006d5565b9050919050565b7f4e487b71000000000000000000000000000000000000000000000000000000005f52603260045260245ffd5b7f64656e6f6d206d757374206265203e20300000000000000000000000000000005f82015250565b5f6200077e6011836200062f565b91506200078b8262000748565b602082019050919050565b5f6020820190508181035f830152620007af8162000770565b9050919050565b620007c181620003bf565b82525050565b5f819050919050565b5f620007f0620007ea620007e4846200031c565b620007c7565b6200031c565b9050919050565b5f6200080382620007d0565b9050919050565b5f6200081682620007f7565b9050919050565b62000828816200080a565b82525050565b6200083981620004c4565b82525050565b5f606082019050620008545f830186620007b6565b6200086360208301856200081d565b6200087260408301846200082e565b949350505050565b60805160a05160c051611158620008ac5f395f6104a301525f61060901525f81816107770152610a1901526111585ff3fe608060405234801561000f575f80fd5b50600436106100a7575f3560e01c806371a5aa9a1161006f57806371a5aa9a146101775780637a508022146101a7578063ed33639f146101d7578063f3ce61ad146101f5578063f4d4c9d714610225578063fc0c546a14610255576100a7565b806312c38213146100ab5780632885c42f146100db5780633b8bfe901461010b5780634ecf518b1461013b578063595ba3ed14610159575b5f80fd5b6100c560048036038101906100c09190610c39565b610273565b6040516100d29190610c91565b60405180910390f35b6100f560048036038101906100f09190610caa565b61029d565b6040516101029190610cf3565b60405180910390f35b61012560048036038101906101209190610c39565b610399565b6040516101329190610c91565b60405180910390f35b6101436104a1565b6040516101509190610cf3565b60405180910390f35b6101616104c5565b60405161016e9190610d1b565b60405180910390f35b610191600480360381019061018c9190610caa565b6104d0565b60405161019e9190610d1b565b60405180910390f35b6101c160048036038101906101bc9190610d34565b6105cc565b6040516101ce9190610dd9565b60405180910390f35b6101df610607565b6040516101ec9190610e12565b60405180910390f35b61020f600480360381019061020a9190610d34565b61062b565b60405161021c9190610d1b565b60405180910390f35b61023f600480360381019061023a9190610c39565b61064a565b60405161024c9190610cf3565b60405180910390f35b61025d610a17565b60405161026a9190610e4b565b60405180910390f35b6002602052815f5260405f20602052805f5260405f205f915091509054906101000a900460ff1681565b5f80805490508260ff16106102e7576040517f08c379a00000000000000000000000000000000000000000000000000000000081526004016102de90610ebe565b60405180910390fd5b60018260ff16815481106102fe576102fd610edc565b5b905f5260205f20015f9054906101000a900473ffffffffffffffffffffffffffffffffffffffff1673ffffffffffffffffffffffffffffffffffffffff1663fc7e9c6f6040518163ffffffff1660e01b8152600401602060405180830381865afa15801561036e573d5f803e3d5ffd5b505050506040513d601f19601f820116820180604052508101906103929190610f33565b9050919050565b5f80805490508360ff16106103e3576040517f08c379a00000000000000000000000000000000000000000000000000000000081526004016103da90610ebe565b60405180910390fd5b60018360ff16815481106103fa576103f9610edc565b5b905f5260205f20015f9054906101000a900473ffffffffffffffffffffffffffffffffffffffff1673ffffffffffffffffffffffffffffffffffffffff1663a6232a93836040518263ffffffff1660e01b815260040161045a9190610d1b565b602060405180830381865afa158015610475573d5f803e3d5ffd5b505050506040513d601f19601f820116820180604052508101906104999190610f88565b905092915050565b7f000000000000000000000000000000000000000000000000000000000000000081565b5f8080549050905090565b5f80805490508260ff161061051a576040517f08c379a000000000000000000000000000000000000000000000000000000000815260040161051190610ebe565b60405180910390fd5b60018260ff168154811061053157610530610edc565b5b905f5260205f20015f9054906101000a900473ffffffffffffffffffffffffffffffffffffffff1673ffffffffffffffffffffffffffffffffffffffff1663ba70f7576040518163ffffffff1660e01b8152600401602060405180830381865afa1580156105a1573d5f803e3d5ffd5b505050506040513d601f19601f820116820180604052508101906105c59190610fc7565b9050919050565b600181815481106105db575f80fd5b905f5260205f20015f915054906101000a900473ffffffffffffffffffffffffffffffffffffffff1681565b7f000000000000000000000000000000000000000000000000000000000000000081565b5f8181548110610639575f80fd5b905f5260205f20015f915090505481565b5f610653610a3b565b5f805490508360ff161061069c576040517f08c379a000000000000000000000000000000000000000000000000000000000815260040161069390610ebe565b60405180910390fd5b5f82036106de576040517f08c379a00000000000000000000000000000000000000000000000000000000081526004016106d59061103c565b60405180910390fd5b60025f8460ff1660ff1681526020019081526020015f205f8381526020019081526020015f205f9054906101000a900460ff1615610751576040517f08c379a0000000000000000000000000000000000000000000000000000000008152600401610748906110a4565b60405180910390fd5b6107bc33305f8660ff168154811061076c5761076b610edc565b5b905f5260205f2001547f000000000000000000000000000000000000000000000000000000000000000073ffffffffffffffffffffffffffffffffffffffff16610a5d909392919063ffffffff16565b600160025f8560ff1660ff1681526020019081526020015f205f8481526020019081526020015f205f6101000a81548160ff0219169083151502179055505f60018460ff168154811061081257610811610edc565b5b905f5260205f20015f9054906101000a900473ffffffffffffffffffffffffffffffffffffffff1690508073ffffffffffffffffffffffffffffffffffffffff1663b7202434846040518263ffffffff1660e01b81526004016108759190610d1b565b6020604051808303815f875af1158015610891573d5f803e3d5ffd5b505050506040513d601f19601f820116820180604052508101906108b59190610f33565b9150828460ff167fca249ed0f415eaced8cd430203b5553c101d9c28210478f6e3acac07075446ba846040516108eb9190610cf3565b60405180910390a38360ff167fff58e9c6c421130e36dfad7608b01673917d5a742790e9f1fcd46f24c2d1e4fc8273ffffffffffffffffffffffffffffffffffffffff1663ba70f7576040518163ffffffff1660e01b8152600401602060405180830381865afa158015610961573d5f803e3d5ffd5b505050506040513d601f19601f820116820180604052508101906109859190610fc7565b8373ffffffffffffffffffffffffffffffffffffffff166390eeb02b6040518163ffffffff1660e01b8152600401602060405180830381865afa1580156109ce573d5f803e3d5ffd5b505050506040513d601f19601f820116820180604052508101906109f29190610f33565b604051610a009291906110c2565b60405180910390a250610a11610ab2565b92915050565b7f000000000000000000000000000000000000000000000000000000000000000081565b610a43610acc565b6002610a55610a50610b0d565b610b36565b5f0181905550565b610a6b848484846001610b3f565b610aac57836040517f5274afe7000000000000000000000000000000000000000000000000000000008152600401610aa39190611109565b60405180910390fd5b50505050565b6001610ac4610abf610b0d565b610b36565b5f0181905550565b610ad4610bb0565b15610b0b576040517f3ee5aeb500000000000000000000000000000000000000000000000000000000815260040160405180910390fd5b565b5f7f9b779b17422d0df92223018b32b4d1fa46e071723d6817e2486d003becc55f005f1b905090565b5f819050919050565b5f806323b872dd60e01b9050604051815f525f1960601c87166004525f1960601c86166024528460445260205f60645f808c5af1925060015f51148316610b9d578383151615610b91573d5f823e3d81fd5b5f883b113d1516831692505b806040525f606052505095945050505050565b5f6002610bc3610bbe610b0d565b610b36565b5f015414905090565b5f80fd5b5f60ff82169050919050565b610be581610bd0565b8114610bef575f80fd5b50565b5f81359050610c0081610bdc565b92915050565b5f819050919050565b610c1881610c06565b8114610c22575f80fd5b50565b5f81359050610c3381610c0f565b92915050565b5f8060408385031215610c4f57610c4e610bcc565b5b5f610c5c85828601610bf2565b9250506020610c6d85828601610c25565b9150509250929050565b5f8115159050919050565b610c8b81610c77565b82525050565b5f602082019050610ca45f830184610c82565b92915050565b5f60208284031215610cbf57610cbe610bcc565b5b5f610ccc84828501610bf2565b91505092915050565b5f63ffffffff82169050919050565b610ced81610cd5565b82525050565b5f602082019050610d065f830184610ce4565b92915050565b610d1581610c06565b82525050565b5f602082019050610d2e5f830184610d0c565b92915050565b5f60208284031215610d4957610d48610bcc565b5b5f610d5684828501610c25565b91505092915050565b5f73ffffffffffffffffffffffffffffffffffffffff82169050919050565b5f819050919050565b5f610da1610d9c610d9784610d5f565b610d7e565b610d5f565b9050919050565b5f610db282610d87565b9050919050565b5f610dc382610da8565b9050919050565b610dd381610db9565b82525050565b5f602082019050610dec5f830184610dca565b92915050565b5f610dfc82610da8565b9050919050565b610e0c81610df2565b82525050565b5f602082019050610e255f830184610e03565b92915050565b5f610e3582610da8565b9050919050565b610e4581610e2b565b82525050565b5f602082019050610e5e5f830184610e3c565b92915050565b5f82825260208201905092915050565b7f6261642064656e6f6d20696e64657800000000000000000000000000000000005f82015250565b5f610ea8600f83610e64565b9150610eb382610e74565b602082019050919050565b5f6020820190508181035f830152610ed581610e9c565b9050919050565b7f4e487b71000000000000000000000000000000000000000000000000000000005f52603260045260245ffd5b610f1281610cd5565b8114610f1c575f80fd5b50565b5f81519050610f2d81610f09565b92915050565b5f60208284031215610f4857610f47610bcc565b5b5f610f5584828501610f1f565b91505092915050565b610f6781610c77565b8114610f71575f80fd5b50565b5f81519050610f8281610f5e565b92915050565b5f60208284031215610f9d57610f9c610bcc565b5b5f610faa84828501610f74565b91505092915050565b5f81519050610fc181610c0f565b92915050565b5f60208284031215610fdc57610fdb610bcc565b5b5f610fe984828501610fb3565b91505092915050565b7f7a65726f20636f6d6d69746d656e7400000000000000000000000000000000005f82015250565b5f611026600f83610e64565b915061103182610ff2565b602082019050919050565b5f6020820190508181035f8301526110538161101a565b9050919050565b7f636f6d6d69746d656e7420616c726561647920757365640000000000000000005f82015250565b5f61108e601783610e64565b91506110998261105a565b602082019050919050565b5f6020820190508181035f8301526110bb81611082565b9050919050565b5f6040820190506110d55f830185610d0c565b6110e26020830184610ce4565b9392505050565b5f6110f382610d5f565b9050919050565b611103816110e9565b82525050565b5f60208201905061111c5f8301846110fa565b9291505056fea2646970667358221220f2cd96e4aff4d696ed74b96a0a4672bdb0ea1a17fa7c34158c42be91c5e4d63464736f6c6343000818003360e06040525f60035f6101000a81548163ffffffff021916908363ffffffff1602179055505f600360046101000a81548163ffffffff021916908363ffffffff16021790555034801562000051575f80fd5b5060405162001ce538038062001ce5833981810160405281019062000077919062000759565b335f73ffffffffffffffffffffffffffffffffffffffff168173ffffffffffffffffffffffffffffffffffffffff1603620000eb575f6040517f1e4fbdf7000000000000000000000000000000000000000000000000000000008152600401620000e29190620007c3565b60405180910390fd5b620000fc816200027b60201b60201c565b5060148363ffffffff161462000149576040517f08c379a0000000000000000000000000000000000000000000000000000000008152600401620001409062000862565b60405180910390fd5b6200015a5f6200033c60201b60201c565b81146200019e576040517f08c379a00000000000000000000000000000000000000000000000000000000081526004016200019590620008f6565b60405180910390fd5b8263ffffffff1660a08163ffffffff16815250508173ffffffffffffffffffffffffffffffffffffffff1660808173ffffffffffffffffffffffffffffffffffffffff16815250508060c081815250505f5b8363ffffffff168163ffffffff16101562000245576200021c8163ffffffff166200033c60201b60201c565b60015f8363ffffffff1681526020019081526020015f20819055508080600101915050620001f0565b506200025d8363ffffffff166200033c60201b60201c565b60025f8081526020019081526020015f208190555050505062000943565b5f805f9054906101000a900473ffffffffffffffffffffffffffffffffffffffff169050815f806101000a81548173ffffffffffffffffffffffffffffffffffffffff021916908373ffffffffffffffffffffffffffffffffffffffff1602179055508173ffffffffffffffffffffffffffffffffffffffff168173ffffffffffffffffffffffffffffffffffffffff167f8be0079c531659141344cd1fd0a4f28419497f9722a3daafe3b4186f6b6457e060405160405180910390a35050565b5f80604051806102a001604052805f81526020017f228981b886e5effb2c05a6be7ab4a05fde6bf702a2d039e46c87057dd729ef9781526020017f218fbf2e2f12f0475d3dcf2e0ab1bd4b9ab528e954738c18c4b7c9b5f4b8496481526020017f2e16a8d602271ea50b5a1bd35b854610ef0bddf8f385bdeb0bb31c4562fa0cd681526020017f2b44a101801fa0b810feb3d82c25e71b88bc6f4aeecd9fcdc2152b1f3c38d04481526020017f19f2fcaf65567ab8803e4fb84e67854815d83a4e1b7be24c6814ba2ba9bdc5ca81526020017f1a3bd772e2782ad018b9c451bf66c3b0ad223a0e68347fae11c78681bf6478df81526020017f034d4539eb24682272ab024133ca575c1cade051f9fdce5948b6b806767e225b81526020017f2971eb2b9cd60a1270db7ab8aada485f64fae5a5e85bed736c67329c410fffee81526020017f2ef220cf75c94a6bc8f4900fe8153ce53132c2de05163d55ecd0fd13519104b481526020017f2075381e03f1e1f60029fc3079d49b918c967b58e2655b1770c86ca3984ab65c81526020017f1d4789eb40dffb09091a0690d88df7ff993c23d172e866a93631f6792909118c81526020017f2b082d0afac14544d746c924d6fc882f6931b7b6aacd796c82d7fe81ce33ce4c81526020017f175c16bc97822dba5fdf5580638d4983831dab655f5095bde23b6685f61981cd81526020017f0c4b05c87053bf236ef505872eac4304546d3c4f989b1d19b93ef9115e883f6681526020017f2d7e044c16807771000769efac4e9147a90359c5f58da39880697de3afdd6d5681526020017f18b029a33a590d748323e8d6cb8ac7636cdff4a154ddb7e19ac9cb6845adff6981526020017f1e45bd2b39d74ef50d211fc7303d55a06478517cd44887308ba40cb6d4d4421681526020017f189b2c3495c37308649a0c3e9fe3dd06e83612e9cb1528833acf358bc9b4327181526020017f0ec11644818dab9d62fdacacda9fdc5d2fb6f4627a332e3b25bbbc7dfb0672e781526020017f119827e780a1850d7b7e34646edc1ce918211c26dda4e13bcd1611f6f81c368081525090508083601581106200065e576200065d62000916565b5b6020020151915050919050565b5f80fd5b5f63ffffffff82169050919050565b62000689816200066f565b811462000694575f80fd5b50565b5f81519050620006a7816200067e565b92915050565b5f73ffffffffffffffffffffffffffffffffffffffff82169050919050565b5f620006d882620006ad565b9050919050565b5f620006eb82620006cc565b9050919050565b620006fd81620006df565b811462000708575f80fd5b50565b5f815190506200071b81620006f2565b92915050565b5f819050919050565b620007358162000721565b811462000740575f80fd5b50565b5f8151905062000753816200072a565b92915050565b5f805f606084860312156200077357620007726200066b565b5b5f620007828682870162000697565b935050602062000795868287016200070b565b9250506040620007a88682870162000743565b9150509250925092565b620007bd81620006cc565b82525050565b5f602082019050620007d85f830184620007b2565b92915050565b5f82825260208201905092915050565b7f74686973206275696c642068617264636f646573207a65726f7320666f72206c5f8201527f6576656c733d3230000000000000000000000000000000000000000000000000602082015250565b5f6200084a602883620007de565b91506200085782620007ee565b604082019050919050565b5f6020820190508181035f8301526200087b816200083c565b9050919050565b7f7a65726f56616c7565206d757374206d617463682068617264636f646564207a5f8201527f65726f735b305d00000000000000000000000000000000000000000000000000602082015250565b5f620008de602783620007de565b9150620008eb8262000882565b604082019050919050565b5f6020820190508181035f8301526200090f81620008d0565b9050919050565b7f4e487b71000000000000000000000000000000000000000000000000000000005f52603260045260245ffd5b60805160a05160c051611362620009835f395f61032801525f818161037001528181610719015261080101525f81816104e701526108a101526113625ff3fe608060405234801561000f575f80fd5b50600436106100fe575f3560e01c8063ba70f75711610095578063ed33639f11610064578063ed33639f1461029e578063f178e47c146102bc578063f2fde38b146102ec578063fc7e9c6f14610308576100fe565b8063ba70f75714610202578063c2b40ae414610220578063cd87a3b414610250578063e82955881461026e576100fe565b80638da5cb5b116100d15780638da5cb5b1461016657806390eeb02b14610184578063a6232a93146101a2578063b7202434146101d2576100fe565b80633b19a3e014610102578063414a37ba146101205780634ecf518b1461013e578063715018a61461015c575b5f80fd5b61010a610326565b6040516101179190610d47565b60405180910390f35b61012861034a565b6040516101359190610d47565b60405180910390f35b61014661036e565b6040516101539190610d7e565b60405180910390f35b610164610392565b005b61016e6103a5565b60405161017b9190610dd6565b60405180910390f35b61018c6103cc565b6040516101999190610d7e565b60405180910390f35b6101bc60048036038101906101b79190610e1d565b6103e1565b6040516101c99190610e62565b60405180910390f35b6101ec60048036038101906101e79190610e1d565b610472565b6040516101f99190610d7e565b60405180910390f35b61020a61048b565b6040516102179190610d47565b60405180910390f35b61023a60048036038101906102359190610e1d565b6104ba565b6040516102479190610d47565b60405180910390f35b6102586104cf565b6040516102659190610d7e565b60405180910390f35b61028860048036038101906102839190610e1d565b6104d4565b6040516102959190610d47565b60405180910390f35b6102a66104e5565b6040516102b39190610ed6565b60405180910390f35b6102d660048036038101906102d19190610e1d565b610509565b6040516102e39190610d47565b60405180910390f35b61030660048036038101906103019190610f19565b61051e565b005b6103106105a2565b60405161031d9190610d7e565b60405180910390f35b7f000000000000000000000000000000000000000000000000000000000000000081565b7f30644e72e131a029b85045b68181585d2833e84879b9709143e1f593f000000181565b7f000000000000000000000000000000000000000000000000000000000000000081565b61039a6105b8565b6103a35f61063f565b565b5f805f9054906101000a900473ffffffffffffffffffffffffffffffffffffffff16905090565b60035f9054906101000a900463ffffffff1681565b5f8082036103f1575f905061046d565b5f60035f9054906101000a900463ffffffff1690505f8190505b60025f8263ffffffff1681526020019081526020015f205484036104345760019250505061046d565b5f8163ffffffff160361044657601e90505b808061045190610f71565b9150508163ffffffff168163ffffffff160361040b575f925050505b919050565b5f61047b6105b8565b61048482610700565b9050919050565b5f60025f60035f9054906101000a900463ffffffff1663ffffffff1681526020019081526020015f2054905090565b6002602052805f5260405f205f915090505481565b601e81565b5f6104de826109fc565b9050919050565b7f000000000000000000000000000000000000000000000000000000000000000081565b6001602052805f5260405f205f915090505481565b6105266105b8565b5f73ffffffffffffffffffffffffffffffffffffffff168173ffffffffffffffffffffffffffffffffffffffff1603610596575f6040517f1e4fbdf700000000000000000000000000000000000000000000000000000000815260040161058d9190610dd6565b60405180910390fd5b61059f8161063f565b50565b600360049054906101000a900463ffffffff1681565b6105c0610d28565b73ffffffffffffffffffffffffffffffffffffffff166105de6103a5565b73ffffffffffffffffffffffffffffffffffffffff161461063d57610601610d28565b6040517f118cdaa70000000000000000000000000000000000000000000000000000000081526004016106349190610dd6565b60405180910390fd5b565b5f805f9054906101000a900473ffffffffffffffffffffffffffffffffffffffff169050815f806101000a81548173ffffffffffffffffffffffffffffffffffffffff021916908373ffffffffffffffffffffffffffffffffffffffff1602179055508173ffffffffffffffffffffffffffffffffffffffff168173ffffffffffffffffffffffffffffffffffffffff167f8be0079c531659141344cd1fd0a4f28419497f9722a3daafe3b4186f6b6457e060405160405180910390a35050565b5f80600360049054906101000a900463ffffffff1690507f0000000000000000000000000000000000000000000000000000000000000000600261074491906110c7565b63ffffffff168163ffffffff1603610791576040517f08c379a00000000000000000000000000000000000000000000000000000000081526004016107889061114f565b60405180910390fd5b7f30644e72e131a029b85045b68181585d2833e84879b9709143e1f593f000000183106107f3576040517f08c379a00000000000000000000000000000000000000000000000000000000081526004016107ea906111b7565b60405180910390fd5b5f8190505f8490505f805f5b7f000000000000000000000000000000000000000000000000000000000000000063ffffffff168163ffffffff161015610957575f6002866108419190611202565b63ffffffff16036108815783925061085e8163ffffffff166109fc565b91508360015f8363ffffffff1681526020019081526020015f208190555061089f565b60015f8263ffffffff1681526020019081526020015f205492508391505b7f000000000000000000000000000000000000000000000000000000000000000073ffffffffffffffffffffffffffffffffffffffff16636882933d84846040518363ffffffff1660e01b81526004016108fa929190611232565b602060405180830381865afa158015610915573d5f803e3d5ffd5b505050506040513d601f19601f82011682018060405250810190610939919061126d565b93506002856109489190611298565b945080806001019150506107ff565b505f601e600160035f9054906101000a900463ffffffff1661097991906112c8565b6109839190611202565b90508060035f6101000a81548163ffffffff021916908363ffffffff1602179055508360025f8363ffffffff1681526020019081526020015f20819055506001866109ce91906112c8565b600360046101000a81548163ffffffff021916908363ffffffff160217905550859650505050505050919050565b5f80604051806102a001604052805f81526020017f228981b886e5effb2c05a6be7ab4a05fde6bf702a2d039e46c87057dd729ef9781526020017f218fbf2e2f12f0475d3dcf2e0ab1bd4b9ab528e954738c18c4b7c9b5f4b8496481526020017f2e16a8d602271ea50b5a1bd35b854610ef0bddf8f385bdeb0bb31c4562fa0cd681526020017f2b44a101801fa0b810feb3d82c25e71b88bc6f4aeecd9fcdc2152b1f3c38d04481526020017f19f2fcaf65567ab8803e4fb84e67854815d83a4e1b7be24c6814ba2ba9bdc5ca81526020017f1a3bd772e2782ad018b9c451bf66c3b0ad223a0e68347fae11c78681bf6478df81526020017f034d4539eb24682272ab024133ca575c1cade051f9fdce5948b6b806767e225b81526020017f2971eb2b9cd60a1270db7ab8aada485f64fae5a5e85bed736c67329c410fffee81526020017f2ef220cf75c94a6bc8f4900fe8153ce53132c2de05163d55ecd0fd13519104b481526020017f2075381e03f1e1f60029fc3079d49b918c967b58e2655b1770c86ca3984ab65c81526020017f1d4789eb40dffb09091a0690d88df7ff993c23d172e866a93631f6792909118c81526020017f2b082d0afac14544d746c924d6fc882f6931b7b6aacd796c82d7fe81ce33ce4c81526020017f175c16bc97822dba5fdf5580638d4983831dab655f5095bde23b6685f61981cd81526020017f0c4b05c87053bf236ef505872eac4304546d3c4f989b1d19b93ef9115e883f6681526020017f2d7e044c16807771000769efac4e9147a90359c5f58da39880697de3afdd6d5681526020017f18b029a33a590d748323e8d6cb8ac7636cdff4a154ddb7e19ac9cb6845adff6981526020017f1e45bd2b39d74ef50d211fc7303d55a06478517cd44887308ba40cb6d4d4421681526020017f189b2c3495c37308649a0c3e9fe3dd06e83612e9cb1528833acf358bc9b4327181526020017f0ec11644818dab9d62fdacacda9fdc5d2fb6f4627a332e3b25bbbc7dfb0672e781526020017f119827e780a1850d7b7e34646edc1ce918211c26dda4e13bcd1611f6f81c36808152509050808360158110610d1b57610d1a6112ff565b5b6020020151915050919050565b5f33905090565b5f819050919050565b610d4181610d2f565b82525050565b5f602082019050610d5a5f830184610d38565b92915050565b5f63ffffffff82169050919050565b610d7881610d60565b82525050565b5f602082019050610d915f830184610d6f565b92915050565b5f73ffffffffffffffffffffffffffffffffffffffff82169050919050565b5f610dc082610d97565b9050919050565b610dd081610db6565b82525050565b5f602082019050610de95f830184610dc7565b92915050565b5f80fd5b610dfc81610d2f565b8114610e06575f80fd5b50565b5f81359050610e1781610df3565b92915050565b5f60208284031215610e3257610e31610def565b5b5f610e3f84828501610e09565b91505092915050565b5f8115159050919050565b610e5c81610e48565b82525050565b5f602082019050610e755f830184610e53565b92915050565b5f819050919050565b5f610e9e610e99610e9484610d97565b610e7b565b610d97565b9050919050565b5f610eaf82610e84565b9050919050565b5f610ec082610ea5565b9050919050565b610ed081610eb6565b82525050565b5f602082019050610ee95f830184610ec7565b92915050565b610ef881610db6565b8114610f02575f80fd5b50565b5f81359050610f1381610eef565b92915050565b5f60208284031215610f2e57610f2d610def565b5b5f610f3b84828501610f05565b91505092915050565b7f4e487b71000000000000000000000000000000000000000000000000000000005f52601160045260245ffd5b5f610f7b82610d60565b91505f8203610f8d57610f8c610f44565b5b600182039050919050565b5f8160011c9050919050565b5f808291508390505b6001851115610fed57808604811115610fc957610fc8610f44565b5b6001851615610fd85780820291505b8081029050610fe685610f98565b9450610fad565b94509492505050565b5f8261100557600190506110c0565b81611012575f90506110c0565b8160018114611028576002811461103257611061565b60019150506110c0565b60ff84111561104457611043610f44565b5b8360020a91508482111561105b5761105a610f44565b5b506110c0565b5060208310610133831016604e8410600b84101617156110965782820a90508381111561109157611090610f44565b5b6110c0565b6110a38484846001610fa4565b925090508184048111156110ba576110b9610f44565b5b81810290505b9392505050565b5f6110d182610d60565b91506110dc83610d60565b92506110ed63ffffffff8484610ff6565b905092915050565b5f82825260208201905092915050565b7f4d65726b6c6520747265652069732066756c6c000000000000000000000000005f82015250565b5f6111396013836110f5565b915061114482611105565b602082019050919050565b5f6020820190508181035f8301526111668161112d565b9050919050565b7f6c656166206e6f7420696e206669656c640000000000000000000000000000005f82015250565b5f6111a16011836110f5565b91506111ac8261116d565b602082019050919050565b5f6020820190508181035f8301526111ce81611195565b9050919050565b7f4e487b71000000000000000000000000000000000000000000000000000000005f52601260045260245ffd5b5f61120c82610d60565b915061121783610d60565b925082611227576112266111d5565b5b828206905092915050565b5f6040820190506112455f830185610d38565b6112526020830184610d38565b9392505050565b5f8151905061126781610df3565b92915050565b5f6020828403121561128257611281610def565b5b5f61128f84828501611259565b91505092915050565b5f6112a282610d60565b91506112ad83610d60565b9250826112bd576112bc6111d5565b5b828204905092915050565b5f6112d282610d60565b91506112dd83610d60565b9250828201905063ffffffff8111156112f9576112f8610f44565b5b92915050565b7f4e487b71000000000000000000000000000000000000000000000000000000005f52603260045260245ffdfea2646970667358221220ddc9073a3879cb98b8107ee31cd230ec80687047e391e81653bd72e2c33b1c1364736f6c63430008180033","linkReferences":{}},"methodIdentifiers":{"commitments(uint8,uint256)":"12c38213","denominationCount()":"595ba3ed","denominations(uint256)":"f3ce61ad","deposit(uint8,uint256)":"f4d4c9d7","getLastRoot(uint8)":"71a5aa9a","hasher()":"ed33639f","isKnownRoot(uint8,uint256)":"3b8bfe90","levels()":"4ecf518b","nextIndex(uint8)":"2885c42f","token()":"fc0c546a","trees(uint256)":"7a508022"},"id":37}