{"abi":[{"type":"constructor","inputs":[{"name":"_levels","type":"uint32","internalType":"uint32"},{"name":"_hasher","type":"address","internalType":"contract IHasher"},{"name":"_zeroValue","type":"uint256","internalType":"uint256"}],"stateMutability":"nonpayable"},{"type":"function","name":"FIELD_SIZE","inputs":[],"outputs":[{"name":"","type":"uint256","internalType":"uint256"}],"stateMutability":"view"},{"type":"function","name":"ROOT_HISTORY_SIZE","inputs":[],"outputs":[{"name":"","type":"uint32","internalType":"uint32"}],"stateMutability":"view"},{"type":"function","name":"currentRootIndex","inputs":[],"outputs":[{"name":"","type":"uint32","internalType":"uint32"}],"stateMutability":"view"},{"type":"function","name":"filledSubtrees","inputs":[{"name":"","type":"uint256","internalType":"uint256"}],"outputs":[{"name":"","type":"uint256","internalType":"uint256"}],"stateMutability":"view"},{"type":"function","name":"getLastRoot","inputs":[],"outputs":[{"name":"","type":"uint256","internalType":"uint256"}],"stateMutability":"view"},{"type":"function","name":"hasher","inputs":[],"outputs":[{"name":"","type":"address","internalType":"contract IHasher"}],"stateMutability":"view"},{"type":"function","name":"isKnownRoot","inputs":[{"name":"_root","type":"uint256","internalType":"uint256"}],"outputs":[{"name":"","type":"bool","internalType":"bool"}],"stateMutability":"view"},{"type":"function","name":"levels","inputs":[],"outputs":[{"name":"","type":"uint32","internalType":"uint32"}],"stateMutability":"view"},{"type":"function","name":"nextIndex","inputs":[],"outputs":[{"name":"","type":"uint32","internalType":"uint32"}],"stateMutability":"view"},{"type":"function","name":"roots","inputs":[{"name":"","type":"uint256","internalType":"uint256"}],"outputs":[{"name":"","type":"uint256","internalType":"uint256"}],"stateMutability":"view"},{"type":"function","name":"zeroValue","inputs":[],"outputs":[{"name":"","type":"uint256","internalType":"uint256"}],"stateMutability":"view"},{"type":"function","name":"zeros","inputs":[{"name":"i","type":"uint256","internalType":"uint256"}],"outputs":[{"name":"","type":"uint256","internalType":"uint256"}],"stateMutability":"pure"}],"bytecode":{"object":"0x60e06040525f60025f6101000a81548163ffffffff021916908363ffffffff1602179055505f600260046101000a81548163ffffffff021916908363ffffffff16021790555034801562000051575f80fd5b506040516200118438038062001184833981810160405281019062000077919062000611565b60148363ffffffff1614620000c3576040517f08c379a0000000000000000000000000000000000000000000000000000000008152600401620000ba90620006ee565b60405180910390fd5b620000d45f620001f460201b60201c565b811462000118576040517f08c379a00000000000000000000000000000000000000000000000000000000081526004016200010f9062000782565b60405180910390fd5b8263ffffffff1660a08163ffffffff16815250508173ffffffffffffffffffffffffffffffffffffffff1660808173ffffffffffffffffffffffffffffffffffffffff16815250508060c081815250505f5b8363ffffffff168163ffffffff161015620001be57620001968163ffffffff16620001f460201b60201c565b5f808363ffffffff1681526020019081526020015f208190555080806001019150506200016a565b50620001d68363ffffffff16620001f460201b60201c565b60015f8081526020019081526020015f2081905550505050620007cf565b5f80604051806102a001604052805f81526020017f228981b886e5effb2c05a6be7ab4a05fde6bf702a2d039e46c87057dd729ef9781526020017f218fbf2e2f12f0475d3dcf2e0ab1bd4b9ab528e954738c18c4b7c9b5f4b8496481526020017f2e16a8d602271ea50b5a1bd35b854610ef0bddf8f385bdeb0bb31c4562fa0cd681526020017f2b44a101801fa0b810feb3d82c25e71b88bc6f4aeecd9fcdc2152b1f3c38d04481526020017f19f2fcaf65567ab8803e4fb84e67854815d83a4e1b7be24c6814ba2ba9bdc5ca81526020017f1a3bd772e2782ad018b9c451bf66c3b0ad223a0e68347fae11c78681bf6478df81526020017f034d4539eb24682272ab024133ca575c1cade051f9fdce5948b6b806767e225b81526020017f2971eb2b9cd60a1270db7ab8aada485f64fae5a5e85bed736c67329c410fffee81526020017f2ef220cf75c94a6bc8f4900fe8153ce53132c2de05163d55ecd0fd13519104b481526020017f2075381e03f1e1f60029fc3079d49b918c967b58e2655b1770c86ca3984ab65c81526020017f1d4789eb40dffb09091a0690d88df7ff993c23d172e866a93631f6792909118c81526020017f2b082d0afac14544d746c924d6fc882f6931b7b6aacd796c82d7fe81ce33ce4c81526020017f175c16bc97822dba5fdf5580638d4983831dab655f5095bde23b6685f61981cd81526020017f0c4b05c87053bf236ef505872eac4304546d3c4f989b1d19b93ef9115e883f6681526020017f2d7e044c16807771000769efac4e9147a90359c5f58da39880697de3afdd6d5681526020017f18b029a33a590d748323e8d6cb8ac7636cdff4a154ddb7e19ac9cb6845adff6981526020017f1e45bd2b39d74ef50d211fc7303d55a06478517cd44887308ba40cb6d4d4421681526020017f189b2c3495c37308649a0c3e9fe3dd06e83612e9cb1528833acf358bc9b4327181526020017f0ec11644818dab9d62fdacacda9fdc5d2fb6f4627a332e3b25bbbc7dfb0672e781526020017f119827e780a1850d7b7e34646edc1ce918211c26dda4e13bcd1611f6f81c36808152509050808360158110620005165762000515620007a2565b5b6020020151915050919050565b5f80fd5b5f63ffffffff82169050919050565b620005418162000527565b81146200054c575f80fd5b50565b5f815190506200055f8162000536565b92915050565b5f73ffffffffffffffffffffffffffffffffffffffff82169050919050565b5f620005908262000565565b9050919050565b5f620005a38262000584565b9050919050565b620005b58162000597565b8114620005c0575f80fd5b50565b5f81519050620005d381620005aa565b92915050565b5f819050919050565b620005ed81620005d9565b8114620005f8575f80fd5b50565b5f815190506200060b81620005e2565b92915050565b5f805f606084860312156200062b576200062a62000523565b5b5f6200063a868287016200054f565b93505060206200064d86828701620005c3565b92505060406200066086828701620005fb565b9150509250925092565b5f82825260208201905092915050565b7f74686973206275696c642068617264636f646573207a65726f7320666f72206c5f8201527f6576656c733d3230000000000000000000000000000000000000000000000000602082015250565b5f620006d66028836200066a565b9150620006e3826200067a565b604082019050919050565b5f6020820190508181035f8301526200070781620006c8565b9050919050565b7f7a65726f56616c7565206d757374206d617463682068617264636f646564207a5f8201527f65726f735b305d00000000000000000000000000000000000000000000000000602082015250565b5f6200076a6027836200066a565b915062000777826200070e565b604082019050919050565b5f6020820190508181035f8301526200079b816200075c565b9050919050565b7f4e487b71000000000000000000000000000000000000000000000000000000005f52603260045260245ffd5b60805160a05160c05161098a620007fa5f395f61026801525f6102b001525f6103d4015261098a5ff3fe608060405234801561000f575f80fd5b50600436106100b2575f3560e01c8063c2b40ae41161006f578063c2b40ae41461017c578063cd87a3b4146101ac578063e8295588146101ca578063ed33639f146101fa578063f178e47c14610218578063fc7e9c6f14610248576100b2565b80633b19a3e0146100b6578063414a37ba146100d45780634ecf518b146100f257806390eeb02b14610110578063a6232a931461012e578063ba70f7571461015e575b5f80fd5b6100be610266565b6040516100cb9190610764565b60405180910390f35b6100dc61028a565b6040516100e99190610764565b60405180910390f35b6100fa6102ae565b604051610107919061079b565b60405180910390f35b6101186102d2565b604051610125919061079b565b60405180910390f35b610148600480360381019061014391906107e2565b6102e7565b6040516101559190610827565b60405180910390f35b610166610378565b6040516101739190610764565b60405180910390f35b610196600480360381019061019191906107e2565b6103a7565b6040516101a39190610764565b60405180910390f35b6101b46103bc565b6040516101c1919061079b565b60405180910390f35b6101e460048036038101906101df91906107e2565b6103c1565b6040516101f19190610764565b60405180910390f35b6102026103d2565b60405161020f91906108ba565b60405180910390f35b610232600480360381019061022d91906107e2565b6103f6565b60405161023f9190610764565b60405180910390f35b61025061040a565b60405161025d919061079b565b60405180910390f35b7f000000000000000000000000000000000000000000000000000000000000000081565b7f30644e72e131a029b85045b68181585d2833e84879b9709143e1f593f000000181565b7f000000000000000000000000000000000000000000000000000000000000000081565b60025f9054906101000a900463ffffffff1681565b5f8082036102f7575f9050610373565b5f60025f9054906101000a900463ffffffff1690505f8190505b60015f8263ffffffff1681526020019081526020015f2054840361033a57600192505050610373565b5f8163ffffffff160361034c57601e90505b808061035790610900565b9150508163ffffffff168163ffffffff1603610311575f925050505b919050565b5f60015f60025f9054906101000a900463ffffffff1663ffffffff1681526020019081526020015f2054905090565b6001602052805f5260405f205f915090505481565b601e81565b5f6103cb82610420565b9050919050565b7f000000000000000000000000000000000000000000000000000000000000000081565b5f602052805f5260405f205f915090505481565b600260049054906101000a900463ffffffff1681565b5f80604051806102a001604052805f81526020017f228981b886e5effb2c05a6be7ab4a05fde6bf702a2d039e46c87057dd729ef9781526020017f218fbf2e2f12f0475d3dcf2e0ab1bd4b9ab528e954738c18c4b7c9b5f4b8496481526020017f2e16a8d602271ea50b5a1bd35b854610ef0bddf8f385bdeb0bb31c4562fa0cd681526020017f2b44a101801fa0b810feb3d82c25e71b88bc6f4aeecd9fcdc2152b1f3c38d04481526020017f19f2fcaf65567ab8803e4fb84e67854815d83a4e1b7be24c6814ba2ba9bdc5ca81526020017f1a3bd772e2782ad018b9c451bf66c3b0ad223a0e68347fae11c78681bf6478df81526020017f034d4539eb24682272ab024133ca575c1cade051f9fdce5948b6b806767e225b81526020017f2971eb2b9cd60a1270db7ab8aada485f64fae5a5e85bed736c67329c410fffee81526020017f2ef220cf75c94a6bc8f4900fe8153ce53132c2de05163d55ecd0fd13519104b481526020017f2075381e03f1e1f60029fc3079d49b918c967b58e2655b1770c86ca3984ab65c81526020017f1d4789eb40dffb09091a0690d88df7ff993c23d172e866a93631f6792909118c81526020017f2b082d0afac14544d746c924d6fc882f6931b7b6aacd796c82d7fe81ce33ce4c81526020017f175c16bc97822dba5fdf5580638d4983831dab655f5095bde23b6685f61981cd81526020017f0c4b05c87053bf236ef505872eac4304546d3c4f989b1d19b93ef9115e883f6681526020017f2d7e044c16807771000769efac4e9147a90359c5f58da39880697de3afdd6d5681526020017f18b029a33a590d748323e8d6cb8ac7636cdff4a154ddb7e19ac9cb6845adff6981526020017f1e45bd2b39d74ef50d211fc7303d55a06478517cd44887308ba40cb6d4d4421681526020017f189b2c3495c37308649a0c3e9fe3dd06e83612e9cb1528833acf358bc9b4327181526020017f0ec11644818dab9d62fdacacda9fdc5d2fb6f4627a332e3b25bbbc7dfb0672e781526020017f119827e780a1850d7b7e34646edc1ce918211c26dda4e13bcd1611f6f81c3680815250905080836015811061073f5761073e610927565b5b6020020151915050919050565b5f819050919050565b61075e8161074c565b82525050565b5f6020820190506107775f830184610755565b92915050565b5f63ffffffff82169050919050565b6107958161077d565b82525050565b5f6020820190506107ae5f83018461078c565b92915050565b5f80fd5b6107c18161074c565b81146107cb575f80fd5b50565b5f813590506107dc816107b8565b92915050565b5f602082840312156107f7576107f66107b4565b5b5f610804848285016107ce565b91505092915050565b5f8115159050919050565b6108218161080d565b82525050565b5f60208201905061083a5f830184610818565b92915050565b5f73ffffffffffffffffffffffffffffffffffffffff82169050919050565b5f819050919050565b5f61088261087d61087884610840565b61085f565b610840565b9050919050565b5f61089382610868565b9050919050565b5f6108a482610889565b9050919050565b6108b48161089a565b82525050565b5f6020820190506108cd5f8301846108ab565b92915050565b7f4e487b71000000000000000000000000000000000000000000000000000000005f52601160045260245ffd5b5f61090a8261077d565b91505f820361091c5761091b6108d3565b5b600182039050919050565b7f4e487b71000000000000000000000000000000000000000000000000000000005f52603260045260245ffdfea2646970667358221220585677e47b978ae4425b6e7076ee5598634e893d7b6e7454d914155afe72259b64736f6c63430008180033","linkReferences":{}},"methodIdentifiers":{"FIELD_SIZE()":"414a37ba","ROOT_HISTORY_SIZE()":"cd87a3b4","currentRootIndex()":"90eeb02b","filledSubtrees(uint256)":"f178e47c","getLastRoot()":"ba70f757","hasher()":"ed33639f","isKnownRoot(uint256)":"a6232a93","levels()":"4ecf518b","nextIndex()":"fc7e9c6f","roots(uint256)":"c2b40ae4","zeroValue()":"3b19a3e0","zeros(uint256)":"e8295588"},"id":20}