{"abi":[{"type":"constructor","inputs":[{"name":"_levels","type":"uint32","internalType":"uint32"},{"name":"_hasher","type":"address","internalType":"contract IHasher"},{"name":"_zeroValue","type":"uint256","internalType":"uint256"}],"stateMutability":"nonpayable"},{"type":"function","name":"FIELD_SIZE","inputs":[],"outputs":[{"name":"","type":"uint256","internalType":"uint256"}],"stateMutability":"view"},{"type":"function","name":"ROOT_HISTORY_SIZE","inputs":[],"outputs":[{"name":"","type":"uint32","internalType":"uint32"}],"stateMutability":"view"},{"type":"function","name":"currentRootIndex","inputs":[],"outputs":[{"name":"","type":"uint32","internalType":"uint32"}],"stateMutability":"view"},{"type":"function","name":"filledSubtrees","inputs":[{"name":"","type":"uint256","internalType":"uint256"}],"outputs":[{"name":"","type":"uint256","internalType":"uint256"}],"stateMutability":"view"},{"type":"function","name":"getLastRoot","inputs":[],"outputs":[{"name":"","type":"uint256","internalType":"uint256"}],"stateMutability":"view"},{"type":"function","name":"hasher","inputs":[],"outputs":[{"name":"","type":"address","internalType":"contract IHasher"}],"stateMutability":"view"},{"type":"function","name":"insertLeaf","inputs":[{"name":"leaf","type":"uint256","internalType":"uint256"}],"outputs":[{"name":"","type":"uint32","internalType":"uint32"}],"stateMutability":"nonpayable"},{"type":"function","name":"isKnownRoot","inputs":[{"name":"_root","type":"uint256","internalType":"uint256"}],"outputs":[{"name":"","type":"bool","internalType":"bool"}],"stateMutability":"view"},{"type":"function","name":"levels","inputs":[],"outputs":[{"name":"","type":"uint32","internalType":"uint32"}],"stateMutability":"view"},{"type":"function","name":"nextIndex","inputs":[],"outputs":[{"name":"","type":"uint32","internalType":"uint32"}],"stateMutability":"view"},{"type":"function","name":"owner","inputs":[],"outputs":[{"name":"","type":"address","internalType":"address"}],"stateMutability":"view"},{"type":"function","name":"renounceOwnership","inputs":[],"outputs":[],"stateMutability":"nonpayable"},{"type":"function","name":"roots","inputs":[{"name":"","type":"uint256","internalType":"uint256"}],"outputs":[{"name":"","type":"uint256","internalType":"uint256"}],"stateMutability":"view"},{"type":"function","name":"transferOwnership","inputs":[{"name":"newOwner","type":"address","internalType":"address"}],"outputs":[],"stateMutability":"nonpayable"},{"type":"function","name":"zeroValue","inputs":[],"outputs":[{"name":"","type":"uint256","internalType":"uint256"}],"stateMutability":"view"},{"type":"function","name":"zeros","inputs":[{"name":"i","type":"uint256","internalType":"uint256"}],"outputs":[{"name":"","type":"uint256","internalType":"uint256"}],"stateMutability":"pure"},{"type":"event","name":"OwnershipTransferred","inputs":[{"name":"previousOwner","type":"address","indexed":true,"internalType":"address"},{"name":"newOwner","type":"address","indexed":true,"internalType":"address"}],"anonymous":false},{"type":"error","name":"OwnableInvalidOwner","inputs":[{"name":"owner","type":"address","internalType":"address"}]},{"type":"error","name":"OwnableUnauthorizedAccount","inputs":[{"name":"account","type":"address","internalType":"address"}]}],"bytecode":{"object":"0x60e06040525f60035f6101000a81548163ffffffff021916908363ffffffff1602179055505f600360046101000a81548163ffffffff021916908363ffffffff16021790555034801562000051575f80fd5b5060405162001ce538038062001ce5833981810160405281019062000077919062000759565b335f73ffffffffffffffffffffffffffffffffffffffff168173ffffffffffffffffffffffffffffffffffffffff1603620000eb575f6040517f1e4fbdf7000000000000000000000000000000000000000000000000000000008152600401620000e29190620007c3565b60405180910390fd5b620000fc816200027b60201b60201c565b5060148363ffffffff161462000149576040517f08c379a0000000000000000000000000000000000000000000000000000000008152600401620001409062000862565b60405180910390fd5b6200015a5f6200033c60201b60201c565b81146200019e576040517f08c379a00000000000000000000000000000000000000000000000000000000081526004016200019590620008f6565b60405180910390fd5b8263ffffffff1660a08163ffffffff16815250508173ffffffffffffffffffffffffffffffffffffffff1660808173ffffffffffffffffffffffffffffffffffffffff16815250508060c081815250505f5b8363ffffffff168163ffffffff16101562000245576200021c8163ffffffff166200033c60201b60201c565b60015f8363ffffffff1681526020019081526020015f20819055508080600101915050620001f0565b506200025d8363ffffffff166200033c60201b60201c565b60025f8081526020019081526020015f208190555050505062000943565b5f805f9054906101000a900473ffffffffffffffffffffffffffffffffffffffff169050815f806101000a81548173ffffffffffffffffffffffffffffffffffffffff021916908373ffffffffffffffffffffffffffffffffffffffff1602179055508173ffffffffffffffffffffffffffffffffffffffff168173ffffffffffffffffffffffffffffffffffffffff167f8be0079c531659141344cd1fd0a4f28419497f9722a3daafe3b4186f6b6457e060405160405180910390a35050565b5f80604051806102a001604052805f81526020017f228981b886e5effb2c05a6be7ab4a05fde6bf702a2d039e46c87057dd729ef9781526020017f218fbf2e2f12f0475d3dcf2e0ab1bd4b9ab528e954738c18c4b7c9b5f4b8496481526020017f2e16a8d602271ea50b5a1bd35b854610ef0bddf8f385bdeb0bb31c4562fa0cd681526020017f2b44a101801fa0b810feb3d82c25e71b88bc6f4aeecd9fcdc2152b1f3c38d04481526020017f19f2fcaf65567ab8803e4fb84e67854815d83a4e1b7be24c6814ba2ba9bdc5ca81526020017f1a3bd772e2782ad018b9c451bf66c3b0ad223a0e68347fae11c78681bf6478df81526020017f034d4539eb24682272ab024133ca575c1cade051f9fdce5948b6b806767e225b81526020017f2971eb2b9cd60a1270db7ab8aada485f64fae5a5e85bed736c67329c410fffee81526020017f2ef220cf75c94a6bc8f4900fe8153ce53132c2de05163d55ecd0fd13519104b481526020017f2075381e03f1e1f60029fc3079d49b918c967b58e2655b1770c86ca3984ab65c81526020017f1d4789eb40dffb09091a0690d88df7ff993c23d172e866a93631f6792909118c81526020017f2b082d0afac14544d746c924d6fc882f6931b7b6aacd796c82d7fe81ce33ce4c81526020017f175c16bc97822dba5fdf5580638d4983831dab655f5095bde23b6685f61981cd81526020017f0c4b05c87053bf236ef505872eac4304546d3c4f989b1d19b93ef9115e883f6681526020017f2d7e044c16807771000769efac4e9147a90359c5f58da39880697de3afdd6d5681526020017f18b029a33a590d748323e8d6cb8ac7636cdff4a154ddb7e19ac9cb6845adff6981526020017f1e45bd2b39d74ef50d211fc7303d55a06478517cd44887308ba40cb6d4d4421681526020017f189b2c3495c37308649a0c3e9fe3dd06e83612e9cb1528833acf358bc9b4327181526020017f0ec11644818dab9d62fdacacda9fdc5d2fb6f4627a332e3b25bbbc7dfb0672e781526020017f119827e780a1850d7b7e34646edc1ce918211c26dda4e13bcd1611f6f81c368081525090508083601581106200065e576200065d62000916565b5b6020020151915050919050565b5f80fd5b5f63ffffffff82169050919050565b62000689816200066f565b811462000694575f80fd5b50565b5f81519050620006a7816200067e565b92915050565b5f73ffffffffffffffffffffffffffffffffffffffff82169050919050565b5f620006d882620006ad565b9050919050565b5f620006eb82620006cc565b9050919050565b620006fd81620006df565b811462000708575f80fd5b50565b5f815190506200071b81620006f2565b92915050565b5f819050919050565b620007358162000721565b811462000740575f80fd5b50565b5f8151905062000753816200072a565b92915050565b5f805f606084860312156200077357620007726200066b565b5b5f620007828682870162000697565b935050602062000795868287016200070b565b9250506040620007a88682870162000743565b9150509250925092565b620007bd81620006cc565b82525050565b5f602082019050620007d85f830184620007b2565b92915050565b5f82825260208201905092915050565b7f74686973206275696c642068617264636f646573207a65726f7320666f72206c5f8201527f6576656c733d3230000000000000000000000000000000000000000000000000602082015250565b5f6200084a602883620007de565b91506200085782620007ee565b604082019050919050565b5f6020820190508181035f8301526200087b816200083c565b9050919050565b7f7a65726f56616c7565206d757374206d617463682068617264636f646564207a5f8201527f65726f735b305d00000000000000000000000000000000000000000000000000602082015250565b5f620008de602783620007de565b9150620008eb8262000882565b604082019050919050565b5f6020820190508181035f8301526200090f81620008d0565b9050919050565b7f4e487b71000000000000000000000000000000000000000000000000000000005f52603260045260245ffd5b60805160a05160c051611362620009835f395f61032801525f818161037001528181610719015261080101525f81816104e701526108a101526113625ff3fe608060405234801561000f575f80fd5b50600436106100fe575f3560e01c8063ba70f75711610095578063ed33639f11610064578063ed33639f1461029e578063f178e47c146102bc578063f2fde38b146102ec578063fc7e9c6f14610308576100fe565b8063ba70f75714610202578063c2b40ae414610220578063cd87a3b414610250578063e82955881461026e576100fe565b80638da5cb5b116100d15780638da5cb5b1461016657806390eeb02b14610184578063a6232a93146101a2578063b7202434146101d2576100fe565b80633b19a3e014610102578063414a37ba146101205780634ecf518b1461013e578063715018a61461015c575b5f80fd5b61010a610326565b6040516101179190610d47565b60405180910390f35b61012861034a565b6040516101359190610d47565b60405180910390f35b61014661036e565b6040516101539190610d7e565b60405180910390f35b610164610392565b005b61016e6103a5565b60405161017b9190610dd6565b60405180910390f35b61018c6103cc565b6040516101999190610d7e565b60405180910390f35b6101bc60048036038101906101b79190610e1d565b6103e1565b6040516101c99190610e62565b60405180910390f35b6101ec60048036038101906101e79190610e1d565b610472565b6040516101f99190610d7e565b60405180910390f35b61020a61048b565b6040516102179190610d47565b60405180910390f35b61023a60048036038101906102359190610e1d565b6104ba565b6040516102479190610d47565b60405180910390f35b6102586104cf565b6040516102659190610d7e565b60405180910390f35b61028860048036038101906102839190610e1d565b6104d4565b6040516102959190610d47565b60405180910390f35b6102a66104e5565b6040516102b39190610ed6565b60405180910390f35b6102d660048036038101906102d19190610e1d565b610509565b6040516102e39190610d47565b60405180910390f35b61030660048036038101906103019190610f19565b61051e565b005b6103106105a2565b60405161031d9190610d7e565b60405180910390f35b7f000000000000000000000000000000000000000000000000000000000000000081565b7f30644e72e131a029b85045b68181585d2833e84879b9709143e1f593f000000181565b7f000000000000000000000000000000000000000000000000000000000000000081565b61039a6105b8565b6103a35f61063f565b565b5f805f9054906101000a900473ffffffffffffffffffffffffffffffffffffffff16905090565b60035f9054906101000a900463ffffffff1681565b5f8082036103f1575f905061046d565b5f60035f9054906101000a900463ffffffff1690505f8190505b60025f8263ffffffff1681526020019081526020015f205484036104345760019250505061046d565b5f8163ffffffff160361044657601e90505b808061045190610f71565b9150508163ffffffff168163ffffffff160361040b575f925050505b919050565b5f61047b6105b8565b61048482610700565b9050919050565b5f60025f60035f9054906101000a900463ffffffff1663ffffffff1681526020019081526020015f2054905090565b6002602052805f5260405f205f915090505481565b601e81565b5f6104de826109fc565b9050919050565b7f000000000000000000000000000000000000000000000000000000000000000081565b6001602052805f5260405f205f915090505481565b6105266105b8565b5f73ffffffffffffffffffffffffffffffffffffffff168173ffffffffffffffffffffffffffffffffffffffff1603610596575f6040517f1e4fbdf700000000000000000000000000000000000000000000000000000000815260040161058d9190610dd6565b60405180910390fd5b61059f8161063f565b50565b600360049054906101000a900463ffffffff1681565b6105c0610d28565b73ffffffffffffffffffffffffffffffffffffffff166105de6103a5565b73ffffffffffffffffffffffffffffffffffffffff161461063d57610601610d28565b6040517f118cdaa70000000000000000000000000000000000000000000000000000000081526004016106349190610dd6565b60405180910390fd5b565b5f805f9054906101000a900473ffffffffffffffffffffffffffffffffffffffff169050815f806101000a81548173ffffffffffffffffffffffffffffffffffffffff021916908373ffffffffffffffffffffffffffffffffffffffff1602179055508173ffffffffffffffffffffffffffffffffffffffff168173ffffffffffffffffffffffffffffffffffffffff167f8be0079c531659141344cd1fd0a4f28419497f9722a3daafe3b4186f6b6457e060405160405180910390a35050565b5f80600360049054906101000a900463ffffffff1690507f0000000000000000000000000000000000000000000000000000000000000000600261074491906110c7565b63ffffffff168163ffffffff1603610791576040517f08c379a00000000000000000000000000000000000000000000000000000000081526004016107889061114f565b60405180910390fd5b7f30644e72e131a029b85045b68181585d2833e84879b9709143e1f593f000000183106107f3576040517f08c379a00000000000000000000000000000000000000000000000000000000081526004016107ea906111b7565b60405180910390fd5b5f8190505f8490505f805f5b7f000000000000000000000000000000000000000000000000000000000000000063ffffffff168163ffffffff161015610957575f6002866108419190611202565b63ffffffff16036108815783925061085e8163ffffffff166109fc565b91508360015f8363ffffffff1681526020019081526020015f208190555061089f565b60015f8263ffffffff1681526020019081526020015f205492508391505b7f000000000000000000000000000000000000000000000000000000000000000073ffffffffffffffffffffffffffffffffffffffff16636882933d84846040518363ffffffff1660e01b81526004016108fa929190611232565b602060405180830381865afa158015610915573d5f803e3d5ffd5b505050506040513d601f19601f82011682018060405250810190610939919061126d565b93506002856109489190611298565b945080806001019150506107ff565b505f601e600160035f9054906101000a900463ffffffff1661097991906112c8565b6109839190611202565b90508060035f6101000a81548163ffffffff021916908363ffffffff1602179055508360025f8363ffffffff1681526020019081526020015f20819055506001866109ce91906112c8565b600360046101000a81548163ffffffff021916908363ffffffff160217905550859650505050505050919050565b5f80604051806102a001604052805f81526020017f228981b886e5effb2c05a6be7ab4a05fde6bf702a2d039e46c87057dd729ef9781526020017f218fbf2e2f12f0475d3dcf2e0ab1bd4b9ab528e954738c18c4b7c9b5f4b8496481526020017f2e16a8d602271ea50b5a1bd35b854610ef0bddf8f385bdeb0bb31c4562fa0cd681526020017f2b44a101801fa0b810feb3d82c25e71b88bc6f4aeecd9fcdc2152b1f3c38d04481526020017f19f2fcaf65567ab8803e4fb84e67854815d83a4e1b7be24c6814ba2ba9bdc5ca81526020017f1a3bd772e2782ad018b9c451bf66c3b0ad223a0e68347fae11c78681bf6478df81526020017f034d4539eb24682272ab024133ca575c1cade051f9fdce5948b6b806767e225b81526020017f2971eb2b9cd60a1270db7ab8aada485f64fae5a5e85bed736c67329c410fffee81526020017f2ef220cf75c94a6bc8f4900fe8153ce53132c2de05163d55ecd0fd13519104b481526020017f2075381e03f1e1f60029fc3079d49b918c967b58e2655b1770c86ca3984ab65c81526020017f1d4789eb40dffb09091a0690d88df7ff993c23d172e866a93631f6792909118c81526020017f2b082d0afac14544d746c924d6fc882f6931b7b6aacd796c82d7fe81ce33ce4c81526020017f175c16bc97822dba5fdf5580638d4983831dab655f5095bde23b6685f61981cd81526020017f0c4b05c87053bf236ef505872eac4304546d3c4f989b1d19b93ef9115e883f6681526020017f2d7e044c16807771000769efac4e9147a90359c5f58da39880697de3afdd6d5681526020017f18b029a33a590d748323e8d6cb8ac7636cdff4a154ddb7e19ac9cb6845adff6981526020017f1e45bd2b39d74ef50d211fc7303d55a06478517cd44887308ba40cb6d4d4421681526020017f189b2c3495c37308649a0c3e9fe3dd06e83612e9cb1528833acf358bc9b4327181526020017f0ec11644818dab9d62fdacacda9fdc5d2fb6f4627a332e3b25bbbc7dfb0672e781526020017f119827e780a1850d7b7e34646edc1ce918211c26dda4e13bcd1611f6f81c36808152509050808360158110610d1b57610d1a6112ff565b5b6020020151915050919050565b5f33905090565b5f819050919050565b610d4181610d2f565b82525050565b5f602082019050610d5a5f830184610d38565b92915050565b5f63ffffffff82169050919050565b610d7881610d60565b82525050565b5f602082019050610d915f830184610d6f565b92915050565b5f73ffffffffffffffffffffffffffffffffffffffff82169050919050565b5f610dc082610d97565b9050919050565b610dd081610db6565b82525050565b5f602082019050610de95f830184610dc7565b92915050565b5f80fd5b610dfc81610d2f565b8114610e06575f80fd5b50565b5f81359050610e1781610df3565b92915050565b5f60208284031215610e3257610e31610def565b5b5f610e3f84828501610e09565b91505092915050565b5f8115159050919050565b610e5c81610e48565b82525050565b5f602082019050610e755f830184610e53565b92915050565b5f819050919050565b5f610e9e610e99610e9484610d97565b610e7b565b610d97565b9050919050565b5f610eaf82610e84565b9050919050565b5f610ec082610ea5565b9050919050565b610ed081610eb6565b82525050565b5f602082019050610ee95f830184610ec7565b92915050565b610ef881610db6565b8114610f02575f80fd5b50565b5f81359050610f1381610eef565b92915050565b5f60208284031215610f2e57610f2d610def565b5b5f610f3b84828501610f05565b91505092915050565b7f4e487b71000000000000000000000000000000000000000000000000000000005f52601160045260245ffd5b5f610f7b82610d60565b91505f8203610f8d57610f8c610f44565b5b600182039050919050565b5f8160011c9050919050565b5f808291508390505b6001851115610fed57808604811115610fc957610fc8610f44565b5b6001851615610fd85780820291505b8081029050610fe685610f98565b9450610fad565b94509492505050565b5f8261100557600190506110c0565b81611012575f90506110c0565b8160018114611028576002811461103257611061565b60019150506110c0565b60ff84111561104457611043610f44565b5b8360020a91508482111561105b5761105a610f44565b5b506110c0565b5060208310610133831016604e8410600b84101617156110965782820a90508381111561109157611090610f44565b5b6110c0565b6110a38484846001610fa4565b925090508184048111156110ba576110b9610f44565b5b81810290505b9392505050565b5f6110d182610d60565b91506110dc83610d60565b92506110ed63ffffffff8484610ff6565b905092915050565b5f82825260208201905092915050565b7f4d65726b6c6520747265652069732066756c6c000000000000000000000000005f82015250565b5f6111396013836110f5565b915061114482611105565b602082019050919050565b5f6020820190508181035f8301526111668161112d565b9050919050565b7f6c656166206e6f7420696e206669656c640000000000000000000000000000005f82015250565b5f6111a16011836110f5565b91506111ac8261116d565b602082019050919050565b5f6020820190508181035f8301526111ce81611195565b9050919050565b7f4e487b71000000000000000000000000000000000000000000000000000000005f52601260045260245ffd5b5f61120c82610d60565b915061121783610d60565b925082611227576112266111d5565b5b828206905092915050565b5f6040820190506112455f830185610d38565b6112526020830184610d38565b9392505050565b5f8151905061126781610df3565b92915050565b5f6020828403121561128257611281610def565b5b5f61128f84828501611259565b91505092915050565b5f6112a282610d60565b91506112ad83610d60565b9250826112bd576112bc6111d5565b5b828204905092915050565b5f6112d282610d60565b91506112dd83610d60565b9250828201905063ffffffff8111156112f9576112f8610f44565b5b92915050565b7f4e487b71000000000000000000000000000000000000000000000000000000005f52603260045260245ffdfea2646970667358221220ddc9073a3879cb98b8107ee31cd230ec80687047e391e81653bd72e2c33b1c1364736f6c63430008180033","linkReferences":{}},"methodIdentifiers":{"FIELD_SIZE()":"414a37ba","ROOT_HISTORY_SIZE()":"cd87a3b4","currentRootIndex()":"90eeb02b","filledSubtrees(uint256)":"f178e47c","getLastRoot()":"ba70f757","hasher()":"ed33639f","insertLeaf(uint256)":"b7202434","isKnownRoot(uint256)":"a6232a93","levels()":"4ecf518b","nextIndex()":"fc7e9c6f","owner()":"8da5cb5b","renounceOwnership()":"715018a6","roots(uint256)":"c2b40ae4","transferOwnership(address)":"f2fde38b","zeroValue()":"3b19a3e0","zeros(uint256)":"e8295588"},"id":34}