{"abi":[{"type":"function","name":"compress","inputs":[{"name":"l","type":"uint256","internalType":"uint256"},{"name":"r","type":"uint256","internalType":"uint256"}],"outputs":[{"name":"","type":"uint256","internalType":"uint256"}],"stateMutability":"pure"},{"type":"function","name":"perm","inputs":[{"name":"l","type":"uint256","internalType":"uint256"},{"name":"r","type":"uint256","internalType":"uint256"}],"outputs":[{"name":"","type":"uint256","internalType":"uint256"},{"name":"","type":"uint256","internalType":"uint256"}],"stateMutability":"pure"}],"bytecode":{"object":"0x608060405234801561000f575f80fd5b506113cf8061001d5f395ff3fe608060405234801561000f575f80fd5b5060043610610034575f3560e01c80636882933d14610038578063f9109d6114610068575b5f80fd5b610052600480360381019061004d9190611199565b610099565b60405161005f91906111e6565b60405180910390f35b610082600480360381019061007d9190611199565b6100e3565b6040516100909291906111ff565b60405180910390f35b5f806100a584846100e3565b5090507f30644e72e131a029b85045b68181585d2833e84879b9709143e1f593f0000001806100d7576100d6611226565b5b84820891505092915050565b5f807f30644e72e131a029b85045b68181585d2833e84879b9709143e1f593f00000018410801561013357507f30644e72e131a029b85045b68181585d2833e84879b9709143e1f593f000000183105b610172576040517f08c379a0000000000000000000000000000000000000000000000000000000008152600401610169906112ad565b60405180910390fd5b5f8490505f8490506101848282610376565b80925081935050505f5b600481101561023f575f806101a28361041d565b915091506101e07f30644e72e131a029b85045b68181585d2833e84879b9709143e1f593f0000001806101d8576101d7611226565b5b8387086106ea565b945061021c7f30644e72e131a029b85045b68181585d2833e84879b9709143e1f593f00000018061021457610213611226565b5b8286086106ea565b93506102288585610376565b80955081965050505050808060010191505061018e565b505f5b60388110156102ae5761028d7f30644e72e131a029b85045b68181585d2833e84879b9709143e1f593f00000018061027d5761027c611226565b5b61028683610790565b85086106ea565b9250610299838361100d565b80935081945050508080600101915050610242565b505f600490505b6008811015610366575f806102c98361041d565b915091506103077f30644e72e131a029b85045b68181585d2833e84879b9709143e1f593f0000001806102ff576102fe611226565b5b8387086106ea565b94506103437f30644e72e131a029b85045b68181585d2833e84879b9709143e1f593f00000018061033b5761033a611226565b5b8286086106ea565b935061034f8585610376565b8095508196505050505080806001019150506102b5565b5081819350935050509250929050565b5f805f7f30644e72e131a029b85045b68181585d2833e84879b9709143e1f593f0000001806103a8576103a7611226565b5b84860890507f30644e72e131a029b85045b68181585d2833e84879b9709143e1f593f0000001806103dc576103db611226565b5b8186087f30644e72e131a029b85045b68181585d2833e84879b9709143e1f593f00000018061040e5761040d611226565b5b82860892509250509250929050565b5f805f6040518061020001604052807f09c46e9ec68e9bd4fe1faaba294cba38a71aa177534cdd1b6c7dc0dbd0abd7a781526020017f0c0356530896eec42a97ed937f3135cfc5142b3ae405b8343c1d83ffa604cb8181526020017f1e28a1d935698ad1142e51182bb54cf4a00ea5aabd6268bd317ea977cc154a3081526020017f27af2d831a9d2748080965db30e298e40e5757c3e008db964cf9e2b12b91251f81526020017f1e6f11ce60fc8f513a6a3cfe16ae175a41291462f214cd0879aaf43545b74e0381526020017f2a67384d3bbd5e438541819cb681f0be04462ed14c3613d8f719206268d142d381526020017f0b66fdf356093a611609f8e12fbfecf0b985e381f025188936408f5d5c9f45d081526020017f012ee3ec1e78d470830c61093c2ade370b26c83cc5cebeeddaa6852dbdb09e2181526020017f19b9b63d2f108e17e63817863a8f6c288d7ad29916d98cb1072e4e7b7d52b37681526020017f015bee1357e3c015b5bda237668522f613d1c88726b5ec4224a20128481b4f7f81526020017f2953736e94bb6b9f1b9707a4f1615e4efe1e1ce4bab218cbea92c785b128ffd181526020017f0b069353ba091618862f806180c0385f851b98d372b45f544ce7266ed6608dfc81526020017f304f74d461ccc13115e4e0bcfb93817e55aeb7eb9306b64e4f588ac97d81f42981526020017f15bbf146ce9bca09e8a33f5e77dfe4f5aad2a164a4617a4cb8ee5415cde913fc81526020017f0ab4dfe0c2742cde44901031487964ed9b8f4b850405c10ca9ff23859572c8c681526020017f0e32db320a044e3197f45f7649a19675ef5eedfea546dea9251de39f9639779a81525090508060028561069a91906112f8565b601081106106ab576106aa611339565b5b60200201518160016002876106c091906112f8565b6106ca9190611366565b601081106106db576106da611339565b5b60200201519250925050915091565b5f807f30644e72e131a029b85045b68181585d2833e84879b9709143e1f593f00000018061071b5761071a611226565b5b83840990505f7f30644e72e131a029b85045b68181585d2833e84879b9709143e1f593f0000001806107505761074f611226565b5b82830990507f30644e72e131a029b85045b68181585d2833e84879b9709143e1f593f00000018061078457610783611226565b5b84820992505050919050565b5f806040518061070001604052807f0252ba5f6760bfbdfd88f67f8175e3fd6cd1c431b099b6bb2d108e7b445bb1b981526020017f179474cceca5ff676c6bec3cef54296354391a8935ff71d6ef5aeaad7ca932f181526020017f2c24261379a51bfa9228ff4a503fd4ed9c1f974a264969b37e1a2589bbed2b9181526020017f1cc1d7b62692e63eac2f288bd0695b43c2f63f5001fc0fc553e66c0551801b0581526020017f255059301aada98bb2ed55f852979e9600784dbf17fbacd05d9eff5fd9c91b5681526020017f28437be3ac1cb2e479e1f5c0eccd32b3aea24234970a8193b11c29ce7e59efd981526020017f28216a442f2e1f711ca4fa6b53766eb118548da8fb4f78d4338762c37f5f204381526020017f2c1f47cd17fa5adf1f39f4e7056dd03feee1efce03094581131f2377323482c981526020017f07abad02b7a5ebc48632bcc9356ceb7dd9dafca276638a63646b8566a621afc981526020017f0230264601ffdf29275b33ffaab51dfe9429f90880a69cd137da0c4d15f96c3c81526020017f1bc973054e51d905a0f168656497ca40a864414557ee289e717e5d66899aa0a981526020017f2e1c22f964435008206c3157e86341edd249aff5c2d8421f2a6b22288f0a67fc81526020017f1224f38df67c5378121c1d5f461bbc509e8ea1598e46c9f7a70452bc2bba86b881526020017f02e4e69d8ba59e519280b4bd9ed0068fd7bfe8cd9dfeda1969d2989186cde20e81526020017f1f1eccc34aaba0137f5df81fc04ff3ee4f19ee364e653f076d47e9735d98018e81526020017f1672ad3d709a353974266c3039a9a7311424448032cd1819eacb8a4d4284f58281526020017f283e3fdc2c6e420c56f44af5192b4ae9cda6961f284d24991d2ed602df8c8fc781526020017f1c2a3d120c550ecfd0db0957170fa013683751f8fdff59d6614fbd69ff394bcc81526020017f216f84877aac6172f7897a7323456efe143a9a43773ea6f296cb6b8177653fbd81526020017f2c0d272becf2a75764ba7e8e3e28d12bceaa47ea61ca59a411a1f51552f9478881526020017f16e34299865c0e28484ee7a74c454e9f170a5480abe0508fcb4a6c3d89546f4381526020017f175ceba599e96f5b375a232a6fb9cc71772047765802290f48cd939755488fc581526020017f0c7594440dc48c16fead9e1758b028066aa410bfbc354f54d8c5ffbb44a1ee3281526020017f1a3c29bc39f21bb5c466db7d7eb6fd8f760e20013ccf912c92479882d919fd8d81526020017f0ccfdd906f3426e5c0986ea049b253400855d349074f5a6695c8eeabcd22e68f81526020017f14f6bc81d9f186f62bdb475ce6c9411866a7a8a3fd065b3ce0e699b67dd9e79681526020017f0962b82789fb3d129702ca70b2f6c5aacc099810c9c495c888edeb7386b9705281526020017f1a880af7074d18b3bf20c79de25127bc13284ab01ef02575afef0c8f6a31a86d81526020017f10cba18419a6a332cd5e77f0211c154b20af2924fc20ff3f4c3012bb7ae9311b81526020017f057e62a9a8f89b3ebdc76ba63a9eaca8fa27b7319cae3406756a2849f302f10d81526020017f287c971de91dc0abd44adf5384b4988cb961303bbf65cff5afa0413b44280cee81526020017f21df3388af1687bbb3bca9da0cca908f1e562bc46d4aba4e6f7f7960e306891d81526020017f1be5c887d25bce703e25cc974d0934cd789df8f70b498fd83eff8b560e1682b381526020017f268da36f76e568fb68117175cea2cd0dd2cb5d42fda5acea48d59c2706a0d5c181526020017f0e17ab091f6eae50c609beaf5510ececc5d8bb74135ebd05bd06460cc26a5ed681526020017f04d727e728ffa0a67aee535ab074a43091ef62d8cf83d270040f5caa1f62af4081526020017f0ddbd7bf9c29341581b549762bc022ed33702ac10f1bfd862b15417d7e39ca6e81526020017f2790eb3351621752768162e82989c6c234f5b0d1d3af9b588a29c49c8789654b81526020017f1e457c601a63b73e4471950193d8a570395f3d9ab8b2fd0984b764206142f9e981526020017f21ae64301dca9625638d6ab2bbe7135ffa90ecd0c43ff91fc4c686fc46e091b081526020017f0379f63c8ce3468d4da293166f494928854be9e3432e09555858534eed8d350b81526020017e2d56420359d0266a744a080809e054ca0e4921a46686ac8c9f58a324c3504981526020017f123158e5965b5d9b1d68b3cd32e10bbeda8d62459e21f4090fc2c5af963515a681526020017f0be29fc40847a941661d14bbf6cbe0420fbb2b6f52836d4e60c80eb49cad9ec181526020017f1ac96991dec2bb0557716142015a453c36db9d859cad5f9a233802f24fdf4c1a81526020017f1596443f763dbcc25f4964fc61d23b3e5e12c9fa97f18a9251ca3355bcb0627e81526020017f12e0bcd3654bdfa76b2861d4ec3aeae0f1857d9f17e715aed6d049eae3ba321281526020017f0fc92b4f1bbea82b9ea73d4af9af2a50ceabac7f37154b1904e6c76c7cf964ba81526020017f1f9c0b1610446442d6f2e592a8013f40b14f7c7722236f4f9c7e96523387276281526020017f0ebd74244ae72675f8cde06157a782f4050d914da38b4c058d159f643dbbf4d381526020017f2cb7f0ed39e16e9f69a9fafd4ab951c03b0671e97346ee397a839839dccfc6d181526020017f1a9d6e2ecff022cc5605443ee41bab20ce761d0514ce526690c72bca7352d9bf81526020017f2a115439607f335a5ea83c3bc44a9331d0c13326a9a7ba3087da182d648ec72f81526020017f23f9b6529b5d040d15b8fa7aee3e3410e738b56305cd44f29535c115c5a4c06081526020017f05872c16db0f72a2249ac6ba484bb9c3a3ce97c16d58b68b260eb939f0e6e8a781526020017f1300bdee08bb7824ca20fb80118075f40219b6151d55b5c52b624a7cdeddf6a7815250905080836038811061100057610fff611339565b5b6020020151915050919050565b5f805f7f30644e72e131a029b85045b68181585d2833e84879b9709143e1f593f00000018061103f5761103e611226565b5b84860890507f30644e72e131a029b85045b68181585d2833e84879b9709143e1f593f00000018061107357611072611226565b5b817f30644e72e131a029b85045b68181585d2833e84879b9709143e1f593f0000001806110a3576110a2611226565b5b6110ac5f611127565b8809087f30644e72e131a029b85045b68181585d2833e84879b9709143e1f593f0000001806110de576110dd611226565b5b827f30644e72e131a029b85045b68181585d2833e84879b9709143e1f593f00000018061110e5761110d611226565b5b6111186001611127565b88090892509250509250929050565b5f806040518060400160405280600181526020016002815250905080836002811061115557611154611339565b5b6020020151915050919050565b5f80fd5b5f819050919050565b61117881611166565b8114611182575f80fd5b50565b5f813590506111938161116f565b92915050565b5f80604083850312156111af576111ae611162565b5b5f6111bc85828601611185565b92505060206111cd85828601611185565b9150509250929050565b6111e081611166565b82525050565b5f6020820190506111f95f8301846111d7565b92915050565b5f6040820190506112125f8301856111d7565b61121f60208301846111d7565b9392505050565b7f4e487b71000000000000000000000000000000000000000000000000000000005f52601260045260245ffd5b5f82825260208201905092915050565b7f696e707574206e6f7420696e206669656c6400000000000000000000000000005f82015250565b5f611297601283611253565b91506112a282611263565b602082019050919050565b5f6020820190508181035f8301526112c48161128b565b9050919050565b7f4e487b71000000000000000000000000000000000000000000000000000000005f52601160045260245ffd5b5f61130282611166565b915061130d83611166565b925082820261131b81611166565b91508282048414831517611332576113316112cb565b5b5092915050565b7f4e487b71000000000000000000000000000000000000000000000000000000005f52603260045260245ffd5b5f61137082611166565b915061137b83611166565b9250828201905080821115611393576113926112cb565b5b9291505056fea26469706673582212201d6ffbb02a267e5fe41c1d6426b0de7ca260187f4550ae75f43275405502889664736f6c63430008180033","linkReferences":{}},"methodIdentifiers":{"compress(uint256,uint256)":"6882933d","perm(uint256,uint256)":"f9109d61"},"id":19}